{
  "contractName": "StakingContract",
  "abi": [
    {
      "inputs": [
        {
          "internalType": "address",
          "name": "_stakingToken",
          "type": "address"
        }
      ],
      "stateMutability": "nonpayable",
      "type": "constructor"
    },
    {
      "anonymous": false,
      "inputs": [
        {
          "indexed": true,
          "internalType": "address",
          "name": "staker",
          "type": "address"
        },
        {
          "indexed": false,
          "internalType": "uint256",
          "name": "amount",
          "type": "uint256"
        }
      ],
      "name": "RewardClaimed",
      "type": "event"
    },
    {
      "anonymous": false,
      "inputs": [
        {
          "indexed": true,
          "internalType": "address",
          "name": "staker",
          "type": "address"
        },
        {
          "indexed": false,
          "internalType": "uint256",
          "name": "amount",
          "type": "uint256"
        }
      ],
      "name": "Staked",
      "type": "event"
    },
    {
      "anonymous": false,
      "inputs": [
        {
          "indexed": true,
          "internalType": "address",
          "name": "staker",
          "type": "address"
        },
        {
          "indexed": false,
          "internalType": "uint256",
          "name": "amount",
          "type": "uint256"
        }
      ],
      "name": "Withdrawn",
      "type": "event"
    },
    {
      "inputs": [],
      "name": "BLOCKS_PER_REWARD",
      "outputs": [
        {
          "internalType": "uint256",
          "name": "",
          "type": "uint256"
        }
      ],
      "stateMutability": "view",
      "type": "function"
    },
    {
      "inputs": [],
      "name": "INTEREST_RATE",
      "outputs": [
        {
          "internalType": "uint256",
          "name": "",
          "type": "uint256"
        }
      ],
      "stateMutability": "view",
      "type": "function"
    },
    {
      "inputs": [
        {
          "internalType": "address",
          "name": "",
          "type": "address"
        }
      ],
      "name": "stakers",
      "outputs": [
        {
          "internalType": "uint256",
          "name": "stakedAmount",
          "type": "uint256"
        },
        {
          "internalType": "uint256",
          "name": "lastBlockChecked",
          "type": "uint256"
        },
        {
          "internalType": "uint256",
          "name": "unclaimedRewards",
          "type": "uint256"
        }
      ],
      "stateMutability": "view",
      "type": "function"
    },
    {
      "inputs": [],
      "name": "stakingToken",
      "outputs": [
        {
          "internalType": "contract IERC20",
          "name": "",
          "type": "address"
        }
      ],
      "stateMutability": "view",
      "type": "function"
    },
    {
      "inputs": [
        {
          "internalType": "uint256",
          "name": "amount",
          "type": "uint256"
        }
      ],
      "name": "depositTokens",
      "outputs": [],
      "stateMutability": "nonpayable",
      "type": "function"
    },
    {
      "inputs": [
        {
          "internalType": "uint256",
          "name": "amount",
          "type": "uint256"
        }
      ],
      "name": "unstakeTokens",
      "outputs": [],
      "stateMutability": "nonpayable",
      "type": "function"
    },
    {
      "inputs": [],
      "name": "claimReward",
      "outputs": [],
      "stateMutability": "nonpayable",
      "type": "function"
    },
    {
      "inputs": [
        {
          "internalType": "address",
          "name": "stakerAddress",
          "type": "address"
        }
      ],
      "name": "calculateReward",
      "outputs": [
        {
          "internalType": "uint256",
          "name": "",
          "type": "uint256"
        }
      ],
      "stateMutability": "nonpayable",
      "type": "function"
    },
    {
      "inputs": [
        {
          "internalType": "uint256",
          "name": "stakeAmount",
          "type": "uint256"
        },
        {
          "internalType": "uint256",
          "name": "periodYears",
          "type": "uint256"
        }
      ],
      "name": "calculateAPY",
      "outputs": [
        {
          "internalType": "uint256",
          "name": "",
          "type": "uint256"
        }
      ],
      "stateMutability": "pure",
      "type": "function"
    }
  ],
  "bytecode": "0x60806040523480156200001157600080fd5b506040516200137d3803806200137d833981810160405281019062000037919062000095565b806000806101000a81548173ffffffffffffffffffffffffffffffffffffffff021916908373ffffffffffffffffffffffffffffffffffffffff160217905550506200010f565b6000815190506200008f81620000f5565b92915050565b600060208284031215620000a857600080fd5b6000620000b8848285016200007e565b91505092915050565b6000620000ce82620000d5565b9050919050565b600073ffffffffffffffffffffffffffffffffffffffff82169050919050565b6200010081620000c1565b81146200010c57600080fd5b50565b61125e806200011f6000396000f3fe608060405234801561001057600080fd5b50600436106100935760003560e01c8063b873995a11610066578063b873995a14610122578063b88a802f14610152578063b8d676d31461015c578063d82e39621461017a578063dd49756e146101aa57610093565b80635b72a33a14610098578063608e4dd0146100b657806372f702f3146100d25780639168ae72146100f0575b600080fd5b6100a06101c6565b6040516100ad9190610dda565b60405180910390f35b6100d060048036038101906100cb9190610bad565b6101cb565b005b6100da61043e565b6040516100e79190610d5f565b60405180910390f35b61010a60048036038101906101059190610b5b565b610462565b60405161011993929190610df5565b60405180910390f35b61013c60048036038101906101379190610bd6565b61048c565b6040516101499190610dda565b60405180910390f35b61015a610600565b005b6101646107a6565b6040516101719190610dda565b60405180910390f35b610194600480360381019061018f9190610b5b565b6107ab565b6040516101a19190610dda565b60405180910390f35b6101c460048036038101906101bf9190610bad565b610914565b005b600281565b6000811161020e576040517f08c379a000000000000000000000000000000000000000000000000000000000815260040161020590610dba565b60405180910390fd5b6000600160003373ffffffffffffffffffffffffffffffffffffffff1673ffffffffffffffffffffffffffffffffffffffff16815260200190815260200160002090508181600001541015610298576040517f08c379a000000000000000000000000000000000000000000000000000000000815260040161028f90610d7a565b60405180910390fd5b60006102a3336107ab565b905060006102ba8285610ac490919063ffffffff16565b90506102d3848460000154610ada90919063ffffffff16565b83600001819055504383600101819055506000836002018190555060008054906101000a900473ffffffffffffffffffffffffffffffffffffffff1673ffffffffffffffffffffffffffffffffffffffff1663a9059cbb33836040518363ffffffff1660e01b8152600401610349929190610d36565b602060405180830381600087803b15801561036357600080fd5b505af1158015610377573d6000803e3d6000fd5b505050506040513d601f19601f8201168201806040525081019061039b9190610b84565b503373ffffffffffffffffffffffffffffffffffffffff167f7084f5476618d8e60b11ef0d7d3f06914655adb8793e28ff7f018d4c76d505d5856040516103e29190610dda565b60405180910390a23373ffffffffffffffffffffffffffffffffffffffff167f106f923f993c2149d49b4255ff723acafa1f2d94393f561d3eda32ae348f7241836040516104309190610dda565b60405180910390a250505050565b60008054906101000a900473ffffffffffffffffffffffffffffffffffffffff1681565b60016020528060005260406000206000915090508060000154908060010154908060020154905083565b6000806104ab670de0b6b3a76400006002610af090919063ffffffff16565b905060006104fe600f6104f0603c6104e2603c6104d4601861016d610af090919063ffffffff16565b610af090919063ffffffff16565b610af090919063ffffffff16565b610b0690919063ffffffff16565b905060006105158583610af090919063ffffffff16565b9050600061054e670de0b6b3a7640000610540670de0b6b3a764000087610ac490919063ffffffff16565b610b0690919063ffffffff16565b9050600061057f84610571670de0b6b3a764000086610af090919063ffffffff16565b610b0690919063ffffffff16565b9050600061059e670de0b6b3a764000083610ada90919063ffffffff16565b836105a99190610f17565b90506105f2670de0b6b3a76400006105e48b6105d6670de0b6b3a764000086610ada90919063ffffffff16565b610af090919063ffffffff16565b610b0690919063ffffffff16565b965050505050505092915050565b600061060b336107ab565b905060008111610650576040517f08c379a000000000000000000000000000000000000000000000000000000000815260040161064790610d9a565b60405180910390fd5b6000600160003373ffffffffffffffffffffffffffffffffffffffff1673ffffffffffffffffffffffffffffffffffffffff16815260200190815260200160002090504381600101819055506000816002018190555060008054906101000a900473ffffffffffffffffffffffffffffffffffffffff1673ffffffffffffffffffffffffffffffffffffffff1663a9059cbb33846040518363ffffffff1660e01b8152600401610701929190610d36565b602060405180830381600087803b15801561071b57600080fd5b505af115801561072f573d6000803e3d6000fd5b505050506040513d601f19601f820116820180604052508101906107539190610b84565b503373ffffffffffffffffffffffffffffffffffffffff167f106f923f993c2149d49b4255ff723acafa1f2d94393f561d3eda32ae348f72418360405161079a9190610dda565b60405180910390a25050565b600a81565b600080600160008473ffffffffffffffffffffffffffffffffffffffff1673ffffffffffffffffffffffffffffffffffffffff16815260200190815260200160002090506000610808826001015443610ada90919063ffffffff16565b90506000610820600a83610b0690919063ffffffff16565b90506000811415610837576000935050505061090f565b6000836000015490506000846002015490506000610867670de0b6b3a76400006002610af090919063ffffffff16565b905060005b848110156108fb576108ac61089d606461088f8588610af090919063ffffffff16565b610b0690919063ffffffff16565b84610ac490919063ffffffff16565b92506108e66108d760646108c98588610af090919063ffffffff16565b610b0690919063ffffffff16565b85610ac490919063ffffffff16565b935080806108f39061112f565b91505061086c565b508186600201819055508196505050505050505b919050565b60008111610957576040517f08c379a000000000000000000000000000000000000000000000000000000000815260040161094e90610dba565b60405180910390fd5b60008054906101000a900473ffffffffffffffffffffffffffffffffffffffff1673ffffffffffffffffffffffffffffffffffffffff166323b872dd3330846040518463ffffffff1660e01b81526004016109b493929190610cff565b602060405180830381600087803b1580156109ce57600080fd5b505af11580156109e2573d6000803e3d6000fd5b505050506040513d601f19601f82011682018060405250810190610a069190610b84565b506000600160003373ffffffffffffffffffffffffffffffffffffffff1673ffffffffffffffffffffffffffffffffffffffff1681526020019081526020016000209050610a61828260000154610ac490919063ffffffff16565b81600001819055504381600101819055503373ffffffffffffffffffffffffffffffffffffffff167f9e71bc8eea02a63969f509818f2dafb9254532904319f9dbda79b67bd34a5f3d83604051610ab89190610dda565b60405180910390a25050565b60008183610ad29190610e3d565b905092915050565b60008183610ae8919061108f565b905092915050565b60008183610afe9190611035565b905092915050565b60008183610b149190610e93565b905092915050565b600081359050610b2b816111e3565b92915050565b600081519050610b40816111fa565b92915050565b600081359050610b5581611211565b92915050565b600060208284031215610b6d57600080fd5b6000610b7b84828501610b1c565b91505092915050565b600060208284031215610b9657600080fd5b6000610ba484828501610b31565b91505092915050565b600060208284031215610bbf57600080fd5b6000610bcd84828501610b46565b91505092915050565b60008060408385031215610be957600080fd5b6000610bf785828601610b46565b9250506020610c0885828601610b46565b9150509250929050565b610c1b816110c3565b82525050565b610c2a8161110b565b82525050565b6000610c3d601a83610e2c565b91507f496e73756666696369656e74207374616b656420616d6f756e740000000000006000830152602082019050919050565b6000610c7d601483610e2c565b91507f4e6f20617661696c61626c6520726577617264730000000000000000000000006000830152602082019050919050565b6000610cbd600e83610e2c565b91507f496e76616c696420616d6f756e740000000000000000000000000000000000006000830152602082019050919050565b610cf981611101565b82525050565b6000606082019050610d146000830186610c12565b610d216020830185610c12565b610d2e6040830184610cf0565b949350505050565b6000604082019050610d4b6000830185610c12565b610d586020830184610cf0565b9392505050565b6000602082019050610d746000830184610c21565b92915050565b60006020820190508181036000830152610d9381610c30565b9050919050565b60006020820190508181036000830152610db381610c70565b9050919050565b60006020820190508181036000830152610dd381610cb0565b9050919050565b6000602082019050610def6000830184610cf0565b92915050565b6000606082019050610e0a6000830186610cf0565b610e176020830185610cf0565b610e246040830184610cf0565b949350505050565b600082825260208201905092915050565b6000610e4882611101565b9150610e5383611101565b9250827fffffffffffffffffffffffffffffffffffffffffffffffffffffffffffffffff03821115610e8857610e87611178565b5b828201905092915050565b6000610e9e82611101565b9150610ea983611101565b925082610eb957610eb86111a7565b5b828204905092915050565b6000808291508390505b6001851115610f0e57808604811115610eea57610ee9611178565b5b6001851615610ef95780820291505b8081029050610f07856111d6565b9450610ece565b94509492505050565b6000610f2282611101565b9150610f2d83611101565b9250610f5a7fffffffffffffffffffffffffffffffffffffffffffffffffffffffffffffffff8484610f62565b905092915050565b600082610f72576001905061102e565b81610f80576000905061102e565b8160018114610f965760028114610fa057610fcf565b600191505061102e565b60ff841115610fb257610fb1611178565b5b8360020a915084821115610fc957610fc8611178565b5b5061102e565b5060208310610133831016604e8410600b84101617156110045782820a905083811115610fff57610ffe611178565b5b61102e565b6110118484846001610ec4565b9250905081840481111561102857611027611178565b5b81810290505b9392505050565b600061104082611101565b915061104b83611101565b9250817fffffffffffffffffffffffffffffffffffffffffffffffffffffffffffffffff048311821515161561108457611083611178565b5b828202905092915050565b600061109a82611101565b91506110a583611101565b9250828210156110b8576110b7611178565b5b828203905092915050565b60006110ce826110e1565b9050919050565b60008115159050919050565b600073ffffffffffffffffffffffffffffffffffffffff82169050919050565b6000819050919050565b60006111168261111d565b9050919050565b6000611128826110e1565b9050919050565b600061113a82611101565b91507fffffffffffffffffffffffffffffffffffffffffffffffffffffffffffffffff82141561116d5761116c611178565b5b600182019050919050565b7f4e487b7100000000000000000000000000000000000000000000000000000000600052601160045260246000fd5b7f4e487b7100000000000000000000000000000000000000000000000000000000600052601260045260246000fd5b60008160011c9050919050565b6111ec816110c3565b81146111f757600080fd5b50565b611203816110d5565b811461120e57600080fd5b50565b61121a81611101565b811461122557600080fd5b5056fea26469706673582212205ab54516f1606dd27d72950cd2722b7a32258c503fb92e2eed1ab1910a91561164736f6c63430008000033",
  "immutableReferences": {},
  "source": "// SPDX-License-Identifier: MIT\r\npragma solidity  ^0.8.0;\r\n\r\nimport \"@openzeppelin/contracts/token/ERC20/IERC20.sol\";\r\nimport \"@openzeppelin/contracts/utils/math/SafeMath.sol\";\r\n\r\ncontract StakingContract {\r\n    using SafeMath for uint256;\r\n\r\n    /// @dev Events of the contract -later\r\n\r\n    IERC20 public stakingToken;\r\n\r\n    /// @dev depositer and his deposit info\r\n    mapping(address => Staker) public stakers;\r\n\r\n    struct Staker {\r\n        uint256 stakedAmount;\r\n        uint256 lastBlockChecked;\r\n        uint256 unclaimedRewards;\r\n    }\r\n\r\n    uint256 public constant BLOCKS_PER_REWARD = 10;\r\n    uint256 public constant INTEREST_RATE = 2; // 2% interest\r\n\r\n    event Staked(address indexed staker, uint256 amount);\r\n    event Withdrawn(address indexed staker, uint256 amount);\r\n    event RewardClaimed(address indexed staker, uint256 amount);\r\n\r\n    /// @notice Contract constructor\r\n    constructor(address _stakingToken) {\r\n        stakingToken = IERC20(_stakingToken);\r\n    }\r\n\r\n    /**\r\n     @notice Allows a depositor to stake his tokens \r\n     @param amount deposit amount\r\n    */\r\n    function depositTokens(uint256 amount) external {\r\n        require(amount > 0, \"Invalid amount\");\r\n\r\n        stakingToken.transferFrom(msg.sender, address(this), amount);\r\n\r\n        Staker storage staker = stakers[msg.sender];\r\n        staker.stakedAmount = staker.stakedAmount.add(amount);\r\n        staker.lastBlockChecked = block.number;\r\n\r\n        emit Staked(msg.sender, amount);\r\n    }\r\n\r\n   /**\r\n     @notice Allows a depositor to unstake tokens\r\n     @param amount deposit to be withdrawn\r\n     */\r\n\r\n    function unstakeTokens(uint256 amount) external {\r\n        require(amount > 0, \"Invalid amount\");\r\n\r\n        Staker storage staker = stakers[msg.sender];\r\n        require(staker.stakedAmount >= amount, \"Insufficient staked amount\");\r\n\r\n        uint256 reward = calculateReward(msg.sender);\r\n        uint256 totalAmount = amount.add(reward);\r\n\r\n        staker.stakedAmount = staker.stakedAmount.sub(amount);\r\n        staker.lastBlockChecked = block.number;\r\n        staker.unclaimedRewards = 0;\r\n\r\n        stakingToken.transfer(msg.sender, totalAmount);\r\n\r\n        emit Withdrawn(msg.sender, amount);\r\n        emit RewardClaimed(msg.sender, reward);\r\n    }\r\n\r\n   \r\n   /**\r\n     @notice Withraw rewwards\r\n    */\r\n    function claimReward() external {\r\n        uint256 reward = calculateReward(msg.sender);\r\n        require(reward > 0, \"No available rewards\");\r\n\r\n        Staker storage staker = stakers[msg.sender];\r\n        staker.lastBlockChecked = block.number;\r\n        staker.unclaimedRewards = 0;\r\n\r\n        stakingToken.transfer(msg.sender, reward);\r\n\r\n        emit RewardClaimed(msg.sender, reward);\r\n    }\r\n   \r\n   \r\n   /**\r\n     @notice internal fucntion to calculate rewards based on compound interest. \r\n     Applies the interest rate to the staked amount for each reward block, \r\n     adding the interest to the total rewards and increasing the staked amount accordingly.\r\n     @param stakerAddress address of the depositor\r\n    */\r\n   \r\n    function calculateReward(address stakerAddress) public returns (uint256) {\r\n        Staker storage staker = stakers[stakerAddress];\r\n        uint256 blocksSinceLastCheck = block.number.sub(staker.lastBlockChecked);\r\n        uint256 rewardBlocks = blocksSinceLastCheck.div(BLOCKS_PER_REWARD);\r\n\r\n        if (rewardBlocks == 0) {\r\n            return 0;\r\n        }\r\n\r\n        uint256 stakedAmount = staker.stakedAmount;\r\n        uint256 totalRewards = staker.unclaimedRewards;\r\n        uint256 interestRate = INTEREST_RATE.mul(10**18); // Convert to 18 decimals\r\n\r\n        for (uint256 i = 0; i < rewardBlocks; i++) {\r\n            totalRewards = totalRewards.add(stakedAmount.mul(interestRate).div(100));\r\n            stakedAmount = stakedAmount.add(stakedAmount.mul(interestRate).div(100));\r\n        }\r\n\r\n        staker.unclaimedRewards = totalRewards;\r\n        return totalRewards;\r\n    }\r\n\r\n    /**\r\n     @notice Approximates APY based on the assumption of 15 seconds per block\r\n     @param stakeAmount  Amount that can be staked\r\n     @param periodYears  Staking duration\r\n    */\r\n\r\n    function calculateAPY(uint256 stakeAmount, uint256 periodYears) public pure returns (uint256) \r\n    {\r\n        uint256 interestRate = INTEREST_RATE.mul(10**18); // Convert to 18 decimals for precision\r\n        uint256 blocksPerYear = uint256(365).mul(24).mul(60).mul(60).div(15); // Assuming 15 seconds per block\r\n        uint256 totalCompounds = blocksPerYear.mul(periodYears);\r\n\r\n        uint256 compoundMultiplier = interestRate.add(10**18).div(10**18); // Add 1 to the interest rate and convert to 18 decimals\r\n        uint256 apyExponent = totalCompounds.mul(10**18).div(blocksPerYear);\r\n        uint256 apy = compoundMultiplier**apyExponent.sub(10**18);\r\n\r\n        return apy.sub(10**18).mul(stakeAmount).div(10**18);\r\n    }\r\n\r\n}",
  "sourcePath": "C:\\Users\\Lenovo\\Desktop\\staking\\src\\contracts\\StakingContract.sol",
  "compiler": {
    "name": "solc",
    "version": "0.8.0+commit.c7dfd78e.Emscripten.clang"
  },
  "schemaVersion": "3.4.14",
  "updatedAt": "2023-07-15T07:15:36.252Z",
  "devdoc": {
    "kind": "dev",
    "methods": {
      "calculateAPY(uint256,uint256)": {
        "params": {
          "periodYears": "Staking duration",
          "stakeAmount": "Amount that can be staked"
        }
      },
      "calculateReward(address)": {
        "params": {
          "stakerAddress": "address of the depositor"
        }
      },
      "depositTokens(uint256)": {
        "params": {
          "amount": "deposit amount"
        }
      },
      "unstakeTokens(uint256)": {
        "params": {
          "amount": "deposit to be withdrawn"
        }
      }
    },
    "stateVariables": {
      "stakers": {
        "details": "depositer and his deposit info"
      },
      "stakingToken": {
        "details": "Events of the contract -later"
      }
    },
    "version": 1
  },
  "userdoc": {
    "kind": "user",
    "methods": {
      "calculateAPY(uint256,uint256)": {
        "notice": "Approximates APY based on the assumption of 15 seconds per block"
      },
      "calculateReward(address)": {
        "notice": "internal fucntion to calculate rewards based on compound interest.  Applies the interest rate to the staked amount for each reward block,  adding the interest to the total rewards and increasing the staked amount accordingly."
      },
      "claimReward()": {
        "notice": "Withraw rewwards"
      },
      "constructor": {
        "notice": "Contract constructor"
      },
      "depositTokens(uint256)": {
        "notice": "Allows a depositor to stake his tokens "
      },
      "unstakeTokens(uint256)": {
        "notice": "Allows a depositor to unstake tokens"
      }
    },
    "version": 1
  }
}